:020000040800F2
:1000000088060020450200084D0200084F02000843
:1000100051020008530200085502000800000000C9
:10002000000000000000000000000000570200086F
:1000300059020008000000005B0200085D02000891
:100040005F0200085F0200085F0200085F0200080C
:100050005F0200085F0200085F0200085F020008FC
:100060005F0200085F0200085F0200085F020008EC
:100070005F0200085F0200085F0200085F020008DC
:100080005F0200085F0200085F0200085F020008CC
:100090005F0200085F0200085F0200085F020008BC
:1000A0005F0200085F0200085F0200085F020008AC
:1000B0005F0200085F0200085F0200085F0200089C
:1000C0005F0200085F0200085F0200085F0200088C
:1000D0005F0200085F0200085F0200085F0200087C
:1000E0005F0200085F0200085F02000800000000D5
:1000F0000000000000000000000000000000000000
:1001000000000000000000005F0200085F0200081D
:100110005F0200085F0200085F0200085F0200083B
:100120005F0200085F0200085F0200085F0200082B
:100130005F0200085F0200085F0200085F0200081B
:100140005F0200085F0200085F0200085F0200080B
:1001500000F002F800F03AF80AA090E8000C82449F
:100160008344AAF10107DA4501D100F02FF8AFF27C
:10017000090EBAE80F0013F0010F18BFFB1A43F085
:10018000010318470409000024090000103A24BFA5
:1001900078C878C1FAD8520724BF30C830C144BFEC
:1001A00004680C607047000000230024002500262E
:1001B000103A28BF78C1FBD8520728BF30C148BFCA
:1001C0000B6070471FB51FBD10B510BD00F021FCBE
:1001D0001146FFF7F7FF00F011F800F03FFC03B401
:1001E000FFF7F2FF03BC00F047FC000001B50098E8
:1001F00001E0401E00900028FBD108BD08B5012198
:10020000202000F0C7FA0420ADF8000010208DF87F
:10021000030003208DF802006946084800F089F8C1
:10022000064A84211432064D141F11602846FFF738
:10023000DDFF21602846FFF7D9FFF6E700140140F3
:10024000404B4C000948804709480047FEE7FEE75D
:10025000FEE7FEE7FEE7FEE7FEE7FEE7FEE7FEE776
:1002600004480549054A064B704700000F0900087D
:100270005101000888000020880600208802002024
:10028000880200208F4910B5884206D10121042040
:1002900000F09BFA002104203BE08B49884206D104
:1002A0000121082000F091FA0021082031E087495F
:1002B000884206D10121102000F087FA0021102089
:1002C00027E08349884206D10121202000F07DFAF1
:1002D000002120201DE07F49884206D101214020D5
:1002E00000F073FA0021402013E07B49884206D1D8
:1002F0000121802000F069FA0021802009E077497F
:1003000088420AD184150121204600F05EFA0021BE
:100310002046BDE8104000F058BA10BD10B50121CC
:10032000084600F052FA0021BDE81040012000F01C
:100330004CBAF0B5CC78002204F00F03E40601D5E6
:100340008C7823430C784FF00F0C14F0FF0F4FF014
:10035000010E1BD005680E880EFA02F42640A64254
:1003600010D196000CFA06F725EA070703FA06F5FE
:10037000CE783D43282E02D0482E02D002E04461C0
:1003800000E00461521C082AE5D305600A88FF2AB0
:100390001CD94468002202F108060EFA06F50E8800
:1003A0002E40AE420ED196000CFA06F7BC4303FA7B
:1003B00006F7CE783C43282E00D14561CE78482EF2
:1003C00000D10561521C082AE5D34460F0BD4FF608
:1003D000FF710180022181700421C17070470246C3
:1003E000002092680A4200D001207047806880B2E5
:1003F000704702460020D2680A4200D001207047B0
:10040000C06880B2704701617047416170470AB1AE
:100410000161704741617047C160704741F48032AB
:100420008261816182618169806970472C4B10B55E
:100430001A684FF68074224042EA001008431860A0
:1004400010BD2849C8617047F0B5254C002801DA75
:10045000E36900E06368450D2E0185B2C0F30157E2
:10046000B540C0F30342032F05D0C6020AD50326C8
:100470009640B34307E023F07062636823F0706333
:10048000636002E0AB4343F0706201B12A4300288D
:1004900001DAE261F0BD6260F0BD10B58A0721F0BB
:1004A00003040F49120F21440F238C6893409C438F
:1004B0008C608B68904003438B6010BD0949C1F884
:1004C000DC00704700080140000C014000100140B2
:1004D0000014014000180140001C014000200140B0
:1004E0000000014000002042CE48016841F00101B7
:1004F00001604168CC4A114041600168CB4A11401B
:100500000160016821F480210160416821F4FE014D
:100510004160016821F0A05101604FF47F018160CA
:100520000021C1627047BF490A6822F480320A6024
:100530000A6822F480220A60B0F5803F07D0B0F547
:10054000802F03D1086840F4A02008607047086835
:1005500040F48030F9E7034600205909B14A0129E7
:100560000AD002290AD0516A03F01F0201239340E6
:100570000B4200D0012070471168F5E7116AF3E7DC
:1005800018B500204FF4A06400903120FFF7E3FF7E
:100590000099491C0091A14201D00028F5D03120DA
:1005A000FFF7D9FF002800D0012018BD9D4A11682F
:1005B00021F0F80141EAC000106070479C490860D2
:1005C0007047984B5A68084322F4741210435860DD
:1005D0007047974908667047924B10B5DA6A954C98
:1005E000084322401043D86210BD8E4AD16A21F0E0
:1005F000F0010143D16270478A4AD16A21F47061E7
:100600000143D16270478A4988667047854AD16A3A
:1006100021F470410143D1627047854908677047F2
:10062000804A516821F003010143516070477D48C1
:10063000406800F00C0070477A4A516821F0F001E0
:10064000014351607047774A516821F4E0610143EA
:1006500051607047734A516821F4605141EAC0000B
:10066000506070476F4A0029517A01D0014300E081
:100670008143517270476E49C1F8D8007047694A8A
:10068000516821F440410143516070476A49086054
:1006900070476949091D086070476249002281F866
:1006A000202081F82020012802D0042802D1052032
:1006B00081F82000704761490860704759490A6A0B
:1006C00002430A6270475D49443908607047F0B5DB
:1006D000544B59685A4A11F00C014FF00F0604D0E0
:1006E000584C042903D0082903D0026028E0046094
:1006F00026E059685A6806EA914102F480320D29D1
:1007000001D0891C00E00621BAB1DA6A12F4803FF8
:10071000DA6A02F00F0202F101020AD0DD6AC5F3C3
:100720000317DD6A7F1CB4FBF7F4C5F30325AD1C8A
:100730006C43B4FBF2F24A43D7E7434A51430160AA
:100740005968424A06EA1111545C0168E14041606F
:100750005C68072505EA1424145D21FA04F484601A
:100760005C6805EAD424125DD140C1605A68032355
:1007700003EA9232354B1B1F9A5CB1FBF2F1016127
:10078000F0BD284A0029516901D0014300E08143AE
:1007900051617047234A0029916901D0014300E06B
:1007A0008143916170471F4A0029D16901D00143FB
:1007B00000E08143D16170471A4A0029916A01D053
:1007C000014300E0814391627047164A0029D168D5
:1007D00001D0014300E08143D1607047114A0029F4
:1007E000116901D0014300E0814311617047134951
:1007F0004039086070470E49C86470470949C8719C
:1008000070470848416A41F0807141627047054A6B
:100810000146002092680A4200D001207047014939
:1008200088727047001002400000FFF0FFFFF6FEE4
:1008300000004242F0FFFEFFC405424280044242F3
:1008400000127A0040787D0100093D00040000207C
:100850000CB50022624800920192016841F4803197
:1008600001604FF4A063016801F400310191009927
:10087000491C0091019911B900999942F3D101687D
:10088000890342D50121019156490A6842F01002BC
:100890000A600A6822F003020A600A6842F0020253
:1008A0000A604168416041684160416841F480618B
:1008B0004160C16A4C4A1140C162C16A4B4A11434E
:1008C000C162016841F08061016001680901FCD5E5
:1008D000416821F47C114160416841F4E8114160B4
:1008E000016841F08071016001688901FCD54168AF
:1008F00021F003014160416841F00201416041681B
:10090000C1F381010229FAD10CBD01920CBD34481A
:1009100010B5016841F0010101604168344A11409D
:1009200041600168334A11400160016821F480216F
:100930000160416821F4FE014160016821F0A0518D
:1009400001604FF47F0181600021C162FFF780FFE9
:1009500029494FF00060086010BD70B5204B586801
:10096000264A274910F00C0004D0264C042803D056
:10097000082803D00A6029E00C6027E058685A680C
:100980000F2505EA904002F480320D2801D0801C2A
:1009900000E00620BAB1DA6A12F4803FDA6A02F0A7
:1009A0000F0202F101020AD0DD6AC5F30316DD6A07
:1009B000761CB4FBF6F4C5F30325AD1C6C43B4FB05
:1009C000F2F24243D6E7104A5043086058680C4A96
:1009D000C0F30310121D105C0A68C2400A6070BDAB
:1009E000001002400020024000F0FEFF440601001B
:1009F0000000FFF0FFFFF6FE08ED00E000127A00B5
:100A00001400002040787D0100093D0070477047C8
:100A10007047754600F02CF8AE460500694653460F
:100A200020F00700854618B020B5FFF719FCBDE897
:100A300020404FF000064FF000074FF000084FF045
:100A4000000B21F00701AC46ACE8C009ACE8C009D6
:100A5000ACE8C009ACE8C0098D46704710B5044643
:100A6000AFF300802046BDE81040FFF7B8BB0000A0
:100A7000004870472800002001491820ABBEFEE75F
:100A80002600020070470000A80A000800000020AD
:100A9000280000008C010008D00A0008280000206F
:100AA00060060000A801000802040608000000001B
:100AB00001020304010203040607080900A24A0414
:100AC00000000000000000000102030406070809FE
:04000005080001519D
:00000001FF
